:1000000036C059C14DC04CC04BC04AC049C048C0A1
:1000100047C046C045C044C043C042C041C040C0C4
:100020003FC03EC03DC0040309040A0356004F0010
:100030005400490016035500530042004500780063
:1000400061006D0070006C00650012011001FF007E
:100050000008C016DC0500010102000109021200BF
:1000600001010080190904000000000000001124B3
:100070001FBECFEDCDBF10E0A0E6B0E0E6E5F5E0B5
:1000800002C005900D92A236B107D9F710E0A2E6A2
:10009000B0E001C01D92AD38B107E1F749D259C2B5
:1000A000AFCF85B7826085BF8BB780648BBF089563
:1000B0001F93CF93DF9390917300935097FD87C068
:1000C0002091700080916F008D3209F07EC09830D1
:1000D00009F07BC0CCE0D0E0C21BD109C958DF4F8A
:1000E00083EC809363008AE5809360001092620045
:1000F0008881807621F0CE010BD2282F5DC09A81B5
:1001000010926C008981882321F410926D0022E006
:100110004DC0853019F49093740047C08630B1F516
:100120008B81813019F48AE490E004C0823041F47C
:100130008CE590E0909372008093710022E122C0E0
:100140008330F9F48A81882341F486E290E0909329
:1001500072008093710024E015C0813041F48AE27E
:1001600090E090937200809371002AE00BC082307F
:1001700041F484E390E0909372008093710026E153
:1001800001C020E080E48093620016C0883021F432
:1001900021E086E790E00CC0893019F49093760056
:1001A00004C08A3011F421E001C020E08CE690E028
:1001B00090937200809371008F81882321F48E8147
:1001C000821708F4282F2093610010927300809109
:1001D000600084FF49C0809161008F3F09F444C0F2
:1001E000182F893008F018E0811B809361008091FE
:1001F000630098E8892780936300112341F12091DF
:100200007100309172008091620086FF0DC0A4E6FB
:10021000B0E080E090E0F901E80FF91FE491ED9380
:1002200001961817C1F708C0912FD901E4E6F0E054
:100230008D9181939150E1F71150812F90E01F5FD4
:100240000196820F931F909372008093710084E651
:1002500090E0612F2CD0612F6C5F6C3019F08FEF24
:10026000809361006093600094E180B38C7031F4FE
:100270009150D9F71092740010926E00DF91CF91D7
:100280001F910895A82FB92F80E090E041E050EA37
:10029000609530E009C02D9182279795879510F0E1
:1002A00084279527305EC8F36F5FA8F30895EADFCF
:1002B0008D939D930895CF93CFB7CF93C395839B91
:1002C000E9F7839B09C0839B07C0839B05C0839B81
:1002D00003C0839B01C0A1C0DF93C0917000DD27E4
:1002E000C958DF4F839B02C0DF91EBCF2F930F9351
:1002F0001F9300B32FEF03FB20F94F933F9310B3ED
:100300004FEF012703FB21F93BE031C04E7F012F66
:1003100010B3216028C0102F4D7F2260000000B371
:1003200029C04B7F2460012F000010B32BC010B3F5
:10033000477F28602AC04F7E00B320612CC04F7DCC
:1003400010B320622FC04F7B00B3206432C042271D
:1003500000B349934FEF0000102713FB20F910B3AF
:100360001C70C9F1297F91F2012703FB21F900B329
:10037000237F89F2315058F1102713FB22F910B373
:10038000277E79F2012703FB23F92F7C81F200B34A
:10039000102713FB24F92F7971F200C010B3012745
:1003A00003FB25F92F7359F200C000B3102713FB8C
:1003B00026F9223040F200C010B3012703FB27F9D1
:1003C000243028F64F77206810B30000F9CF10E4EE
:1003D0001ABF002717C03B503195C31BD04010E413
:1003E0001ABF0881033CE9F00B34D9F020916E006C
:1003F0001981110F1213EDCF093641F10D3211F0B1
:10040000013E39F7009375003F914F911F910F9175
:100410002F91DF91CAB7C6FD51CFCF91CFBFCF91FA
:10042000189520917500222379F310917300112300
:1004300011F5343012F13093730020936F00109156
:1004400070003BE0311B3093700017C000917300C7
:1004500001308CF40AE53091600034FD10C0009347
:100460006000C3E6D0E00FC02795A8F45150A9F46E
:10047000220F0000F9CF4AE503C042ED01C0432F2F
:10048000C4E1D0E032E011B31C60939A11BB02B317
:1004900020E41CE05F93012756E002BB279520F47F
:1004A000515021F4220FF9CF012756E000003B5AAA
:1004B00002BBD0F2279528F4515029F4220F0000F6
:1004C000F9CF012756E0279502BB20F4515021F4C3
:1004D000220FF9CF012756E02991332302BB21F6E1
:1004E000037F10917400110FC651D04002BB11F070
:1004F00010936E0010E41ABF086011B3137F402FF1
:10050000437F5F9100C000C002BB11BB42BB7CCFE8
:10051000FC013181383050F428B381E090E002C012
:10052000880F991F3A95E2F7282728BB80E00895A5
:100530008EE028E130E00FB6F894A89521BD0FBEFB
:1005400081BDAFDD8FEF87BB18BA7894A895B0DD79
:06055000FDCFF894FFCF7F
:020556005AFF4A
:00000001FF
