:1000000050C0A7C167C066C065C064C063C062C09D
:1000100061C060C05FC05EC05DC05CC05BC05AC0F4
:1000200059C058C057C0040309040A0356004F00C2
:100030005400490016035500530042004500780063
:1000400061006D0070006C00650012011001FF007E
:100050000008C016DC0500010102000109021B00B6
:1000600001010080190904000000030000000921BB
:10007000010100012218000600FF0901A10115007D
:1000800026FF007508850095080900B20201C0002E
:100090000000000000000000000000000000000060
:1000A000000011241FBECFEDCDBF10E0A0E6B0E0F0
:1000B000E4EBF6E002C005900D92A236B107D9F745
:1000C00010E0A2E6B0E001C01D92A839B107E1F747
:1000D000B7D2EEC295CF85B7826085BF8BB78064FB
:1000E0008BBF08951F93CF93DF9390917E00935021
:1000F00097FDACC020917B0080917A008D3209F091
:10010000A3C0983009F0A0C0CCE0D0E0C21BD10958
:10011000CE57DF4F83EC80936E008AE580936000BA
:10012000109262008881807639F0CE0171D2282F3A
:100130008F3F09F479C07FC09A811092770089813E
:10014000882321F41092780022E067C0853019F4EA
:1001500090937F0061C0863009F04FC08B81813061
:1001600041F48AE490E090937D0080937C0022E14A
:1001700040C0823041F48CE590E090937D00809304
:100180007C002BE136C08330F9F48A81882341F466
:1001900086E290E090937D0080937C0024E029C06B
:1001A000813041F48AE290E090937D0080937C005E
:1001B0002AE01FC08230E1F484E390E090937D0058
:1001C00080937C0026E115C0813241F48EE690E0F8
:1001D00090937D0080937C0029E00BC0823241F433
:1001E00087E790E090937D0080937C0028E101C038
:1001F00020E080E4809362001EC0883021F421E07A
:1002000081E890E00CC0893019F49093810004C01B
:100210008A3011F421E001C020E087E790E090935C
:100220007D0080937C0007C0888187FD2E8180E857
:100230008093620006C08F81882319F48E81821713
:1002400008F0822F8093610010927E008091600000
:1002500084FF58C0809161008F3F09F453C0182F6C
:10026000893008F018E0811B8093610080916E0056
:1002700098E8892780936E00112391F180916200A4
:1002800087FF08C08FE690E0612FE9D1182F8930F1
:1002900098F526C020917C0030917D0086FF0DC02E
:1002A000AFE6B0E080E090E0F901E80FF91FE491DB
:1002B000ED9301961817C1F708C0912FD901EFE609
:1002C000F0E08D9181939150E1F71150812F90E0F2
:1002D0001F5F0196820F931F90937D0080937C0097
:1002E0008FE690E0612F31D0612F6C5F6C3041F070
:1002F0008FEF8093610004C08FEF809361006EE107
:100300006093600094E180B38C7031F49150D9F720
:1003100010927F0010927900DF91CF911F91089584
:10032000A82FB92F80E090E041E050EA609530E0DE
:1003300009C02D9182279795879510F084279527DE
:10034000305EC8F36F5FA8F30895EADF8D939D9345
:100350000895CF93CFB7CF93C395839BE9F7839B42
:1003600009C0839B07C0839B05C0839B03C0839BFD
:1003700001C0A1C0DF93C0917B00DD27CE57DF4FC6
:10038000839B02C0DF91EBCF2F930F931F9300B39A
:100390002FEF03FB20F94F933F9310B34FEF01274B
:1003A00003FB21F93BE031C04E7F012F10B32160E8
:1003B00028C0102F4D7F2260000000B329C04B7F62
:1003C0002460012F000010B32BC010B3477F2860BA
:1003D0002AC04F7E00B320612CC04F7D10B3206235
:1003E0002FC04F7B00B3206432C0422700B3499333
:1003F0004FEF0000102713FB20F910B31C70C9F158
:10040000297F91F2012703FB21F900B3237F89F2B1
:10041000315058F1102713FB22F910B3277E79F2DF
:10042000012703FB23F92F7C81F200B3102713FB74
:1004300024F92F7971F200C010B3012703FB25F9CD
:100440002F7359F200C000B3102713FB26F9223096
:1004500040F200C010B3012703FB27F9243028F62F
:100460004F77206810B30000F9CF10E41ABF0027BF
:1004700017C03B503195C31BD04010E41ABF088110
:10048000033CE9F00B34D9F0209179001981110F68
:100490001213EDCF093641F10D3211F0013E39F75B
:1004A000009380003F914F911F910F912F91DF9109
:1004B000CAB7C6FD51CFCF91CFBFCF91189520912C
:1004C0008000222379F310917E00112311F534303E
:1004D00012F130937E0020937A0010917B003BE074
:1004E000311B30937B0017C000917E0001308CF4EB
:1004F0000AE53091600034FD10C000936000CEE644
:10050000D0E00FC02795A8F45150A9F4220F0000A5
:10051000F9CF4AE503C042ED01C0432FC4E1D0E06A
:1005200032E011B31C60939A11BB02B320E41CE0CB
:100530005F93012756E002BB279520F4515021F428
:10054000220FF9CF012756E000003B5A02BBD0F240
:10055000279528F4515029F4220F0000F9CF0127E4
:1005600056E0279502BB20F4515021F4220FF9CF19
:10057000012756E02991332302BB21F6037F109116
:100580007F00110FC651D04002BB11F010937900CB
:1005900010E41ABF086011B3137F402F437F5F91AF
:1005A00000C000C002BB11BB42BB7CCF36B3832F5F
:1005B000817080936300832F90E096958795282F14
:1005C00021702093640096958795282F21702093A1
:1005D000650096958795282F217020936600969543
:1005E0008795282F21702093670096958795282F4F
:1005F000217020936800969587958170809369009B
:1006000010926A0037FF03C081E080936A0008956A
:10061000FC0180818076803289F4928190936D0014
:100620008181813059F4992349F4C0DF83E690E059
:1006300090937D0080937C0088E0089580E0089589
:100640002EE088E190E00FB6F894A89581BD0FBE2A
:1006500021BD41DD17BA7894A89544DDFDCF1F93E5
:1006600020916C00162F261708F4122F60916B0052
:1006700070E0412F50E00DD080916B00810F80938E
:100680006B0080916C00811B80936C00812F1F9107
:100690000895A82F862FE82FE199FECF1FBA05C035
:1006A000EEBBE09AE3950DB20D924150C8F7089564
:0406B000F894FFCFEC
:0206B4005AFFEB
:00000001FF
